{
  "_format": "hh-sol-artifact-1",
  "contractName": "DamageGame",
  "sourceName": "contracts/DamageGame.sol",
  "abi": [
    {
      "inputs": [
        {
          "internalType": "address",
          "name": "_mon",
          "type": "address"
        },
        {
          "internalType": "address",
          "name": "_vault",
          "type": "address"
        }
      ],
      "stateMutability": "nonpayable",
      "type": "constructor"
    },
    {
      "inputs": [
        {
          "internalType": "address",
          "name": "owner",
          "type": "address"
        }
      ],
      "name": "OwnableInvalidOwner",
      "type": "error"
    },
    {
      "inputs": [
        {
          "internalType": "address",
          "name": "account",
          "type": "address"
        }
      ],
      "name": "OwnableUnauthorizedAccount",
      "type": "error"
    },
    {
      "anonymous": false,
      "inputs": [
        {
          "indexed": false,
          "internalType": "uint256",
          "name": "hp",
          "type": "uint256"
        }
      ],
      "name": "BossSpawned",
      "type": "event"
    },
    {
      "anonymous": false,
      "inputs": [
        {
          "indexed": false,
          "internalType": "address",
          "name": "user",
          "type": "address"
        },
        {
          "indexed": false,
          "internalType": "uint256",
          "name": "amount",
          "type": "uint256"
        }
      ],
      "name": "DamageDealt",
      "type": "event"
    },
    {
      "anonymous": false,
      "inputs": [
        {
          "indexed": true,
          "internalType": "address",
          "name": "previousOwner",
          "type": "address"
        },
        {
          "indexed": true,
          "internalType": "address",
          "name": "newOwner",
          "type": "address"
        }
      ],
      "name": "OwnershipTransferred",
      "type": "event"
    },
    {
      "stateMutability": "payable",
      "type": "fallback"
    },
    {
      "inputs": [
        {
          "internalType": "address",
          "name": "nft",
          "type": "address"
        }
      ],
      "name": "addFeaturedNFT",
      "outputs": [],
      "stateMutability": "nonpayable",
      "type": "function"
    },
    {
      "inputs": [],
      "name": "aprioriVault",
      "outputs": [
        {
          "internalType": "contract IAprioriVault",
          "name": "",
          "type": "address"
        }
      ],
      "stateMutability": "view",
      "type": "function"
    },
    {
      "inputs": [
        {
          "internalType": "address",
          "name": "",
          "type": "address"
        },
        {
          "internalType": "string",
          "name": "",
          "type": "string"
        },
        {
          "internalType": "address",
          "name": "",
          "type": "address"
        }
      ],
      "name": "assetBuyers",
      "outputs": [
        {
          "internalType": "bool",
          "name": "",
          "type": "bool"
        }
      ],
      "stateMutability": "view",
      "type": "function"
    },
    {
      "inputs": [],
      "name": "backdoorClaims",
      "outputs": [
        {
          "internalType": "uint256",
          "name": "",
          "type": "uint256"
        }
      ],
      "stateMutability": "view",
      "type": "function"
    },
    {
      "inputs": [],
      "name": "bossHealth",
      "outputs": [
        {
          "internalType": "uint256",
          "name": "",
          "type": "uint256"
        }
      ],
      "stateMutability": "view",
      "type": "function"
    },
    {
      "inputs": [],
      "name": "bossMaxHealth",
      "outputs": [
        {
          "internalType": "uint256",
          "name": "",
          "type": "uint256"
        }
      ],
      "stateMutability": "view",
      "type": "function"
    },
    {
      "inputs": [],
      "name": "botAddress",
      "outputs": [
        {
          "internalType": "address",
          "name": "",
          "type": "address"
        }
      ],
      "stateMutability": "view",
      "type": "function"
    },
    {
      "inputs": [
        {
          "internalType": "address",
          "name": "",
          "type": "address"
        },
        {
          "internalType": "string",
          "name": "",
          "type": "string"
        },
        {
          "internalType": "address",
          "name": "",
          "type": "address"
        }
      ],
      "name": "castInteractions",
      "outputs": [
        {
          "internalType": "bool",
          "name": "",
          "type": "bool"
        }
      ],
      "stateMutability": "view",
      "type": "function"
    },
    {
      "inputs": [],
      "name": "createNFT",
      "outputs": [],
      "stateMutability": "nonpayable",
      "type": "function"
    },
    {
      "inputs": [],
      "name": "createToken",
      "outputs": [],
      "stateMutability": "nonpayable",
      "type": "function"
    },
    {
      "inputs": [
        {
          "internalType": "uint256",
          "name": "",
          "type": "uint256"
        }
      ],
      "name": "featuredNFTList",
      "outputs": [
        {
          "internalType": "address",
          "name": "",
          "type": "address"
        }
      ],
      "stateMutability": "view",
      "type": "function"
    },
    {
      "inputs": [
        {
          "internalType": "address",
          "name": "",
          "type": "address"
        }
      ],
      "name": "featuredNFTs",
      "outputs": [
        {
          "internalType": "bool",
          "name": "",
          "type": "bool"
        }
      ],
      "stateMutability": "view",
      "type": "function"
    },
    {
      "inputs": [
        {
          "internalType": "address",
          "name": "user",
          "type": "address"
        }
      ],
      "name": "fetchUserStats",
      "outputs": [
        {
          "internalType": "uint256",
          "name": "monBal",
          "type": "uint256"
        },
        {
          "internalType": "uint256",
          "name": "total",
          "type": "uint256"
        },
        {
          "internalType": "uint256",
          "name": "acc",
          "type": "uint256"
        },
        {
          "internalType": "uint256",
          "name": "txC",
          "type": "uint256"
        },
        {
          "internalType": "uint256",
          "name": "followC",
          "type": "uint256"
        },
        {
          "internalType": "uint256",
          "name": "txM",
          "type": "uint256"
        },
        {
          "internalType": "uint256",
          "name": "fM",
          "type": "uint256"
        },
        {
          "internalType": "uint256",
          "name": "nftM",
          "type": "uint256"
        }
      ],
      "stateMutability": "view",
      "type": "function"
    },
    {
      "inputs": [
        {
          "internalType": "address",
          "name": "user",
          "type": "address"
        }
      ],
      "name": "getMultipliers",
      "outputs": [
        {
          "internalType": "uint256",
          "name": "",
          "type": "uint256"
        },
        {
          "internalType": "uint256",
          "name": "",
          "type": "uint256"
        },
        {
          "internalType": "uint256",
          "name": "",
          "type": "uint256"
        },
        {
          "internalType": "uint256",
          "name": "",
          "type": "uint256"
        }
      ],
      "stateMutability": "view",
      "type": "function"
    },
    {
      "inputs": [],
      "name": "lastBossSpawn",
      "outputs": [
        {
          "internalType": "uint256",
          "name": "",
          "type": "uint256"
        }
      ],
      "stateMutability": "view",
      "type": "function"
    },
    {
      "inputs": [],
      "name": "monToken",
      "outputs": [
        {
          "internalType": "contract IERC20",
          "name": "",
          "type": "address"
        }
      ],
      "stateMutability": "view",
      "type": "function"
    },
    {
      "inputs": [],
      "name": "owner",
      "outputs": [
        {
          "internalType": "address",
          "name": "",
          "type": "address"
        }
      ],
      "stateMutability": "view",
      "type": "function"
    },
    {
      "inputs": [
        {
          "internalType": "address",
          "name": "creator",
          "type": "address"
        },
        {
          "internalType": "string",
          "name": "t",
          "type": "string"
        },
        {
          "internalType": "address",
          "name": "buyer",
          "type": "address"
        }
      ],
      "name": "recordAssetPurchase",
      "outputs": [],
      "stateMutability": "nonpayable",
      "type": "function"
    },
    {
      "inputs": [
        {
          "internalType": "uint256",
          "name": "castId",
          "type": "uint256"
        },
        {
          "internalType": "string",
          "name": "t",
          "type": "string"
        },
        {
          "internalType": "address",
          "name": "from",
          "type": "address"
        }
      ],
      "name": "recordCastEngagement",
      "outputs": [],
      "stateMutability": "nonpayable",
      "type": "function"
    },
    {
      "inputs": [
        {
          "internalType": "address",
          "name": "user",
          "type": "address"
        },
        {
          "internalType": "uint256",
          "name": "castId",
          "type": "uint256"
        }
      ],
      "name": "registerCast",
      "outputs": [],
      "stateMutability": "nonpayable",
      "type": "function"
    },
    {
      "inputs": [
        {
          "internalType": "address",
          "name": "nft",
          "type": "address"
        }
      ],
      "name": "removeFeaturedNFT",
      "outputs": [],
      "stateMutability": "nonpayable",
      "type": "function"
    },
    {
      "inputs": [],
      "name": "renounceOwnership",
      "outputs": [],
      "stateMutability": "nonpayable",
      "type": "function"
    },
    {
      "inputs": [
        {
          "internalType": "string",
          "name": "keyword",
          "type": "string"
        }
      ],
      "name": "secretClaim",
      "outputs": [],
      "stateMutability": "nonpayable",
      "type": "function"
    },
    {
      "inputs": [
        {
          "internalType": "address",
          "name": "b",
          "type": "address"
        }
      ],
      "name": "setBotAddress",
      "outputs": [],
      "stateMutability": "nonpayable",
      "type": "function"
    },
    {
      "inputs": [
        {
          "internalType": "address",
          "name": "user",
          "type": "address"
        },
        {
          "internalType": "uint256",
          "name": "txCount",
          "type": "uint256"
        },
        {
          "internalType": "uint256",
          "name": "followerCount",
          "type": "uint256"
        }
      ],
      "name": "setUserMetadata",
      "outputs": [],
      "stateMutability": "nonpayable",
      "type": "function"
    },
    {
      "inputs": [],
      "name": "spawnBoss",
      "outputs": [],
      "stateMutability": "nonpayable",
      "type": "function"
    },
    {
      "inputs": [
        {
          "internalType": "uint256",
          "name": "amt",
          "type": "uint256"
        }
      ],
      "name": "stakeMON",
      "outputs": [],
      "stateMutability": "nonpayable",
      "type": "function"
    },
    {
      "inputs": [
        {
          "internalType": "bytes32",
          "name": "txHash",
          "type": "bytes32"
        }
      ],
      "name": "submitTxHash",
      "outputs": [],
      "stateMutability": "nonpayable",
      "type": "function"
    },
    {
      "inputs": [
        {
          "internalType": "bytes32",
          "name": "",
          "type": "bytes32"
        }
      ],
      "name": "submittedTxHashes",
      "outputs": [
        {
          "internalType": "bool",
          "name": "",
          "type": "bool"
        }
      ],
      "stateMutability": "view",
      "type": "function"
    },
    {
      "inputs": [
        {
          "internalType": "address",
          "name": "newOwner",
          "type": "address"
        }
      ],
      "name": "transferOwnership",
      "outputs": [],
      "stateMutability": "nonpayable",
      "type": "function"
    },
    {
      "inputs": [
        {
          "internalType": "address",
          "name": "",
          "type": "address"
        }
      ],
      "name": "userClaims",
      "outputs": [
        {
          "internalType": "uint256",
          "name": "",
          "type": "uint256"
        }
      ],
      "stateMutability": "view",
      "type": "function"
    },
    {
      "inputs": [
        {
          "internalType": "address",
          "name": "",
          "type": "address"
        }
      ],
      "name": "users",
      "outputs": [
        {
          "internalType": "uint256",
          "name": "totalDamage",
          "type": "uint256"
        },
        {
          "internalType": "uint256",
          "name": "accumulatedDamage",
          "type": "uint256"
        },
        {
          "internalType": "uint256",
          "name": "lastStakeTime",
          "type": "uint256"
        },
        {
          "internalType": "uint256",
          "name": "lastTokenCreate",
          "type": "uint256"
        },
        {
          "internalType": "uint256",
          "name": "lastNFTCreate",
          "type": "uint256"
        },
        {
          "internalType": "uint256",
          "name": "txCount",
          "type": "uint256"
        },
        {
          "internalType": "uint256",
          "name": "followerCount",
          "type": "uint256"
        }
      ],
      "stateMutability": "view",
      "type": "function"
    },
    {
      "stateMutability": "payable",
      "type": "receive"
    }
  ],
  "bytecode": "0x60806040523480156200001157600080fd5b50604051620035d7380380620035d783398181016040528101906200003791906200040d565b33600073ffffffffffffffffffffffffffffffffffffffff168173ffffffffffffffffffffffffffffffffffffffff1603620000ad5760006040517f1e4fbdf7000000000000000000000000000000000000000000000000000000008152600401620000a4919062000465565b60405180910390fd5b620000be816200015960201b60201c565b5081600160006101000a81548173ffffffffffffffffffffffffffffffffffffffff021916908373ffffffffffffffffffffffffffffffffffffffff16021790555080600260006101000a81548173ffffffffffffffffffffffffffffffffffffffff021916908373ffffffffffffffffffffffffffffffffffffffff160217905550620001516200021d60201b60201c565b5050620005e0565b60008060009054906101000a900473ffffffffffffffffffffffffffffffffffffffff169050816000806101000a81548173ffffffffffffffffffffffffffffffffffffffff021916908373ffffffffffffffffffffffffffffffffffffffff1602179055508173ffffffffffffffffffffffffffffffffffffffff168173ffffffffffffffffffffffffffffffffffffffff167f8be0079c531659141344cd1fd0a4f28419497f9722a3daafe3b4186f6b6457e060405160405180910390a35050565b6200022d620002d060201b60201c565b600062061a81424460405160200162000248929190620004b1565b6040516020818303038152906040528051906020012060001c6200026d919062000510565b620186a06200027d919062000577565b90508060038190555080600481905550426005819055507f55a15f4c871a6b0b7a2e2571805d9430e5da1532840f5576bb11924a8a1ddb9b81604051620002c59190620005c3565b60405180910390a150565b620002e06200037260201b60201c565b73ffffffffffffffffffffffffffffffffffffffff16620003066200037a60201b60201c565b73ffffffffffffffffffffffffffffffffffffffff16146200037057620003326200037260201b60201c565b6040517f118cdaa700000000000000000000000000000000000000000000000000000000815260040162000367919062000465565b60405180910390fd5b565b600033905090565b60008060009054906101000a900473ffffffffffffffffffffffffffffffffffffffff16905090565b600080fd5b600073ffffffffffffffffffffffffffffffffffffffff82169050919050565b6000620003d582620003a8565b9050919050565b620003e781620003c8565b8114620003f357600080fd5b50565b6000815190506200040781620003dc565b92915050565b60008060408385031215620004275762000426620003a3565b5b60006200043785828601620003f6565b92505060206200044a85828601620003f6565b9150509250929050565b6200045f81620003c8565b82525050565b60006020820190506200047c600083018462000454565b92915050565b6000819050919050565b6000819050919050565b620004ab620004a58262000482565b6200048c565b82525050565b6000620004bf828562000496565b602082019150620004d1828462000496565b6020820191508190509392505050565b7f4e487b7100000000000000000000000000000000000000000000000000000000600052601260045260246000fd5b60006200051d8262000482565b91506200052a8362000482565b9250826200053d576200053c620004e1565b5b828206905092915050565b7f4e487b7100000000000000000000000000000000000000000000000000000000600052601160045260246000fd5b6000620005848262000482565b9150620005918362000482565b9250828201905080821115620005ac57620005ab62000548565b5b92915050565b620005bd8162000482565b82525050565b6000602082019050620005da6000830184620005b2565b92915050565b612fe780620005f06000396000f3fe6080604052600436106101e75760003560e01c8063772ca65911610102578063da74965311610095578063f0a3563c11610064578063f0a3563c146106d0578063f2fde38b1461070d578063f514144314610736578063fcc1dfca14610773576101ee565b8063da74965314610602578063db54807f1461062d578063db7b51b11461066a578063f055caae146106a7576101ee565b8063a87430ba116100d1578063a87430ba1461052e578063d202b47014610571578063d8dcff2e1461059a578063d9214c54146105d7576101ee565b8063772ca659146104aa5780638a97ec2a146104d55780638da5cb5b146104ec5780639cbf9e3614610517576101ee565b8063403dbe301161017a5780635445b052116101495780635445b0521461041457806363eb9f901461043f5780636dba3d3e1461046a578063715018a614610493576101ee565b8063403dbe301461037e57806348fbfa18146103955780634bf4f423146103c05780634fb76bd3146103eb576101ee565b806316b805d1116101b657806316b805d1146102ab5780632d4f40c6146102d4578063318d8f9d146102fd5780633488ff6f14610341576101ee565b806304082ff4146101f05780630b5b60d61461023057806310ccf2931461025957806315b72dff14610282576101ee565b366101ee57005b005b3480156101fc57600080fd5b50610217600480360381019061021291906121c6565b61079c565b604051610227949392919061220c565b60405180910390f35b34801561023c57600080fd5b506102576004803603810190610252919061227d565b6109d5565b005b34801561026557600080fd5b50610280600480360381019061027b91906122f3565b610a74565b005b34801561028e57600080fd5b506102a960048036038101906102a49190612320565b610b0f565b005b3480156102b757600080fd5b506102d260048036038101906102cd91906124b9565b610c32565b005b3480156102e057600080fd5b506102fb60048036038101906102f691906121c6565b610ebe565b005b34801561030957600080fd5b50610324600480360381019061031f91906121c6565b610f0a565b604051610338989796959493929190612528565b60405180910390f35b34801561034d57600080fd5b50610368600480360381019061036391906122f3565b6110e9565b60405161037591906125c1565b60405180910390f35b34801561038a57600080fd5b50610393611109565b005b3480156103a157600080fd5b506103aa6111ac565b6040516103b7919061263b565b60405180910390f35b3480156103cc57600080fd5b506103d56111d2565b6040516103e29190612665565b60405180910390f35b3480156103f757600080fd5b50610412600480360381019061040d91906121c6565b6111f8565b005b34801561042057600080fd5b5061042961125b565b6040516104369190612680565b60405180910390f35b34801561044b57600080fd5b50610454611261565b60405161046191906126bc565b60405180910390f35b34801561047657600080fd5b50610491600480360381019061048c91906126d7565b611287565b005b34801561049f57600080fd5b506104a8611561565b005b3480156104b657600080fd5b506104bf611575565b6040516104cc9190612680565b60405180910390f35b3480156104e157600080fd5b506104ea61157b565b005b3480156104f857600080fd5b50610501611661565b60405161050e9190612665565b60405180910390f35b34801561052357600080fd5b5061052c61168a565b005b34801561053a57600080fd5b50610555600480360381019061055091906121c6565b611770565b6040516105689796959493929190612704565b60405180910390f35b34801561057d57600080fd5b5061059860048036038101906105939190612773565b6117b2565b005b3480156105a657600080fd5b506105c160048036038101906105bc91906121c6565b611a38565b6040516105ce91906125c1565b60405180910390f35b3480156105e357600080fd5b506105ec611a58565b6040516105f99190612680565b60405180910390f35b34801561060e57600080fd5b50610617611a5e565b6040516106249190612680565b60405180910390f35b34801561063957600080fd5b50610654600480360381019061064f9190612773565b611a64565b60405161066191906125c1565b60405180910390f35b34801561067657600080fd5b50610691600480360381019061068c91906126d7565b611ab6565b60405161069e9190612665565b60405180910390f35b3480156106b357600080fd5b506106ce60048036038101906106c991906121c6565b611af5565b005b3480156106dc57600080fd5b506106f760048036038101906106f291906121c6565b611c48565b6040516107049190612680565b60405180910390f35b34801561071957600080fd5b50610734600480360381019061072f91906121c6565b611c60565b005b34801561074257600080fd5b5061075d60048036038101906107589190612773565b611ce6565b60405161076a91906125c1565b60405180910390f35b34801561077f57600080fd5b5061079a600480360381019061079591906127e2565b611d38565b005b6000806000806000600760008773ffffffffffffffffffffffffffffffffffffffff1673ffffffffffffffffffffffffffffffffffffffff1681526020019081526020016000209050600060c88260050154111561083d576101f482600501541115610835576103208260050154111561082d576103e882600501541115610825576078610828565b60505b610830565b603c5b610838565b60285b610840565b60145b60ff1690506000600a836006015411156108995760148360060154111561089157602883600601541115610889576064836006015410610881576078610884565b60505b61088c565b603c5b610894565b60285b61089c565b60145b60ff1690506000805b600980549050811015610995576000600982815481106108c8576108c761282b565b5b9060005260206000200160009054906101000a900473ffffffffffffffffffffffffffffffffffffffff1673ffffffffffffffffffffffffffffffffffffffff166370a082318c6040518263ffffffff1660e01b815260040161092b9190612665565b602060405180830381865afa158015610948573d6000803e3d6000fd5b505050506040513d601f19601f8201168201806040525081019061096c919061286f565b11156109825760328261097f91906128cb565b91505b808061098d906128ff565b9150506108a5565b50600081606484866109a79190612947565b6109b191906129b8565b6109bb91906128cb565b905083838383985098509850985050505050509193509193565b600660009054906101000a900473ffffffffffffffffffffffffffffffffffffffff1673ffffffffffffffffffffffffffffffffffffffff163373ffffffffffffffffffffffffffffffffffffffff1614610a65576040517f08c379a0000000000000000000000000000000000000000000000000000000008152600401610a5c90612a46565b60405180910390fd5b610a70826014611f18565b5050565b600a600082815260200190815260200160002060009054906101000a900460ff1615610ad5576040517f08c379a0000000000000000000000000000000000000000000000000000000008152600401610acc90612ab2565b60405180910390fd5b6001600a600083815260200190815260200160002060006101000a81548160ff021916908315150217905550610b0c336005611f18565b50565b600660009054906101000a900473ffffffffffffffffffffffffffffffffffffffff1673ffffffffffffffffffffffffffffffffffffffff163373ffffffffffffffffffffffffffffffffffffffff1614610b9f576040517f08c379a0000000000000000000000000000000000000000000000000000000008152600401610b9690612a46565b60405180910390fd5b81600760008573ffffffffffffffffffffffffffffffffffffffff1673ffffffffffffffffffffffffffffffffffffffff1681526020019081526020016000206005018190555080600760008573ffffffffffffffffffffffffffffffffffffffff1673ffffffffffffffffffffffffffffffffffffffff16815260200190815260200160002060060181905550505050565b600660009054906101000a900473ffffffffffffffffffffffffffffffffffffffff1673ffffffffffffffffffffffffffffffffffffffff163373ffffffffffffffffffffffffffffffffffffffff1614610cc2576040517f08c379a0000000000000000000000000000000000000000000000000000000008152600401610cb990612a46565b60405180910390fd5b6000329050600b60008273ffffffffffffffffffffffffffffffffffffffff1673ffffffffffffffffffffffffffffffffffffffff16815260200190815260200160002083604051610d149190612b43565b908152602001604051809103902060008373ffffffffffffffffffffffffffffffffffffffff1673ffffffffffffffffffffffffffffffffffffffff16815260200190815260200160002060009054906101000a900460ff1615610dad576040517f08c379a0000000000000000000000000000000000000000000000000000000008152600401610da490612ba6565b60405180910390fd5b6001600b60008373ffffffffffffffffffffffffffffffffffffffff1673ffffffffffffffffffffffffffffffffffffffff16815260200190815260200160002084604051610dfc9190612b43565b908152602001604051809103902060008473ffffffffffffffffffffffffffffffffffffffff1673ffffffffffffffffffffffffffffffffffffffff16815260200190815260200160002060006101000a81548160ff0219169083151502179055506001600760008373ffffffffffffffffffffffffffffffffffffffff1673ffffffffffffffffffffffffffffffffffffffff1681526020019081526020016000206001016000828254610eb191906128cb565b9250508190555050505050565b610ec6612001565b80600660006101000a81548173ffffffffffffffffffffffffffffffffffffffff021916908373ffffffffffffffffffffffffffffffffffffffff16021790555050565b600080600080600080600080600160009054906101000a900473ffffffffffffffffffffffffffffffffffffffff1673ffffffffffffffffffffffffffffffffffffffff166370a082318a6040518263ffffffff1660e01b8152600401610f719190612665565b602060405180830381865afa158015610f8e573d6000803e3d6000fd5b505050506040513d601f19601f82011682018060405250810190610fb2919061286f565b9750600760008a73ffffffffffffffffffffffffffffffffffffffff1673ffffffffffffffffffffffffffffffffffffffff168152602001908152602001600020600001549650600760008a73ffffffffffffffffffffffffffffffffffffffff1673ffffffffffffffffffffffffffffffffffffffff168152602001908152602001600020600101549550600760008a73ffffffffffffffffffffffffffffffffffffffff1673ffffffffffffffffffffffffffffffffffffffff168152602001908152602001600020600501549450600760008a73ffffffffffffffffffffffffffffffffffffffff1673ffffffffffffffffffffffffffffffffffffffff1681526020019081526020016000206006015493506110d18961079c565b50809350819450829550505050919395975091939597565b600a6020528060005260406000206000915054906101000a900460ff1681565b611111612001565b600062061a81424460405160200161112a929190612be7565b6040516020818303038152906040528051906020012060001c61114d9190612c13565b620186a061115b91906128cb565b90508060038190555080600481905550426005819055507f55a15f4c871a6b0b7a2e2571805d9430e5da1532840f5576bb11924a8a1ddb9b816040516111a19190612680565b60405180910390a150565b600260009054906101000a900473ffffffffffffffffffffffffffffffffffffffff1681565b600660009054906101000a900473ffffffffffffffffffffffffffffffffffffffff1681565b611200612001565b6000600860008373ffffffffffffffffffffffffffffffffffffffff1673ffffffffffffffffffffffffffffffffffffffff16815260200190815260200160002060006101000a81548160ff02191690831515021790555050565b60035481565b600160009054906101000a900473ffffffffffffffffffffffffffffffffffffffff1681565b62015180600760003373ffffffffffffffffffffffffffffffffffffffff1673ffffffffffffffffffffffffffffffffffffffff168152602001908152602001600020600201546112d891906128cb565b4211611319576040517f08c379a000000000000000000000000000000000000000000000000000000000815260040161131090612c90565b60405180910390fd5b600160009054906101000a900473ffffffffffffffffffffffffffffffffffffffff1673ffffffffffffffffffffffffffffffffffffffff166323b872dd3330846040518463ffffffff1660e01b815260040161137893929190612cb0565b6020604051808303816000875af1158015611397573d6000803e3d6000fd5b505050506040513d601f19601f820116820180604052508101906113bb9190612d13565b50600160009054906101000a900473ffffffffffffffffffffffffffffffffffffffff1673ffffffffffffffffffffffffffffffffffffffff1663095ea7b3600260009054906101000a900473ffffffffffffffffffffffffffffffffffffffff16836040518363ffffffff1660e01b815260040161143b929190612d40565b6020604051808303816000875af115801561145a573d6000803e3d6000fd5b505050506040513d601f19601f8201168201806040525081019061147e9190612d13565b50600260009054906101000a900473ffffffffffffffffffffffffffffffffffffffff1673ffffffffffffffffffffffffffffffffffffffff1663b6b55f25826040518263ffffffff1660e01b81526004016114da9190612680565b600060405180830381600087803b1580156114f457600080fd5b505af1158015611508573d6000803e3d6000fd5b5050505042600760003373ffffffffffffffffffffffffffffffffffffffff1673ffffffffffffffffffffffffffffffffffffffff1681526020019081526020016000206002018190555061155e33600a611f18565b50565b611569612001565b6115736000612088565b565b600d5481565b62093a80600760003373ffffffffffffffffffffffffffffffffffffffff1673ffffffffffffffffffffffffffffffffffffffff168152602001908152602001600020600401546115cc91906128cb565b421161160d576040517f08c379a000000000000000000000000000000000000000000000000000000000815260040161160490612db5565b60405180910390fd5b42600760003373ffffffffffffffffffffffffffffffffffffffff1673ffffffffffffffffffffffffffffffffffffffff1681526020019081526020016000206004018190555061165f336014611f18565b565b60008060009054906101000a900473ffffffffffffffffffffffffffffffffffffffff16905090565b62093a80600760003373ffffffffffffffffffffffffffffffffffffffff1673ffffffffffffffffffffffffffffffffffffffff168152602001908152602001600020600301546116db91906128cb565b421161171c576040517f08c379a000000000000000000000000000000000000000000000000000000000815260040161171390612db5565b60405180910390fd5b42600760003373ffffffffffffffffffffffffffffffffffffffff1673ffffffffffffffffffffffffffffffffffffffff1681526020019081526020016000206003018190555061176e336014611f18565b565b60076020528060005260406000206000915090508060000154908060010154908060020154908060030154908060040154908060050154908060060154905087565b600660009054906101000a900473ffffffffffffffffffffffffffffffffffffffff1673ffffffffffffffffffffffffffffffffffffffff163373ffffffffffffffffffffffffffffffffffffffff1614611842576040517f08c379a000000000000000000000000000000000000000000000000000000000815260040161183990612a46565b60405180910390fd5b600c60008473ffffffffffffffffffffffffffffffffffffffff1673ffffffffffffffffffffffffffffffffffffffff1681526020019081526020016000208260405161188f9190612b43565b908152602001604051809103902060008273ffffffffffffffffffffffffffffffffffffffff1673ffffffffffffffffffffffffffffffffffffffff16815260200190815260200160002060009054906101000a900460ff1615611928576040517f08c379a000000000000000000000000000000000000000000000000000000000815260040161191f90612ba6565b60405180910390fd5b6001600c60008573ffffffffffffffffffffffffffffffffffffffff1673ffffffffffffffffffffffffffffffffffffffff168152602001908152602001600020836040516119779190612b43565b908152602001604051809103902060008373ffffffffffffffffffffffffffffffffffffffff1673ffffffffffffffffffffffffffffffffffffffff16815260200190815260200160002060006101000a81548160ff0219169083151502179055506005600760008573ffffffffffffffffffffffffffffffffffffffff1673ffffffffffffffffffffffffffffffffffffffff1681526020019081526020016000206001016000828254611a2c91906128cb565b92505081905550505050565b60086020528060005260406000206000915054906101000a900460ff1681565b60055481565b60045481565b600c60205282600052604060002082805160208101820180518482526020830160208501208183528095505050505050602052806000526040600020600092509250509054906101000a900460ff1681565b60098181548110611ac657600080fd5b906000526020600020016000915054906101000a900473ffffffffffffffffffffffffffffffffffffffff1681565b611afd612001565b600860008273ffffffffffffffffffffffffffffffffffffffff1673ffffffffffffffffffffffffffffffffffffffff16815260200190815260200160002060009054906101000a900460ff1615611b8a576040517f08c379a0000000000000000000000000000000000000000000000000000000008152600401611b8190612e21565b60405180910390fd5b6001600860008373ffffffffffffffffffffffffffffffffffffffff1673ffffffffffffffffffffffffffffffffffffffff16815260200190815260200160002060006101000a81548160ff0219169083151502179055506009819080600181540180825580915050600190039060005260206000200160009091909190916101000a81548173ffffffffffffffffffffffffffffffffffffffff021916908373ffffffffffffffffffffffffffffffffffffffff16021790555050565b600e6020528060005260406000206000915090505481565b611c68612001565b600073ffffffffffffffffffffffffffffffffffffffff168173ffffffffffffffffffffffffffffffffffffffff1603611cda5760006040517f1e4fbdf7000000000000000000000000000000000000000000000000000000008152600401611cd19190612665565b60405180910390fd5b611ce381612088565b50565b600b60205282600052604060002082805160208101820180518482526020830160208501208183528095505050505050602052806000526040600020600092509250509054906101000a900460ff1681565b6006600d5410611d7d576040517f08c379a0000000000000000000000000000000000000000000000000000000008152600401611d7490612e8d565b60405180910390fd5b6001600e60003373ffffffffffffffffffffffffffffffffffffffff1673ffffffffffffffffffffffffffffffffffffffff1681526020019081526020016000205410611dff576040517f08c379a0000000000000000000000000000000000000000000000000000000008152600401611df690612ef9565b60405180910390fd5b600d6000815480929190611e12906128ff565b9190505550600e60003373ffffffffffffffffffffffffffffffffffffffff1673ffffffffffffffffffffffffffffffffffffffff1681526020019081526020016000206000815480929190611e67906128ff565b9190505550600160009054906101000a900473ffffffffffffffffffffffffffffffffffffffff1673ffffffffffffffffffffffffffffffffffffffff1663a9059cbb33670de0b6b3a76400006040518363ffffffff1660e01b8152600401611ed1929190612f54565b6020604051808303816000875af1158015611ef0573d6000803e3d6000fd5b505050506040513d601f19601f82011682018060405250810190611f149190612d13565b5050565b6000611f238361079c565b9350505050600060648284611f389190612947565b611f4291906129b8565b905080600760008673ffffffffffffffffffffffffffffffffffffffff1673ffffffffffffffffffffffffffffffffffffffff1681526020019081526020016000206000016000828254611f9691906128cb565b925050819055508060035411611fad576000611fbc565b80600354611fbb9190612f7d565b5b6003819055507fdf894be6799435722e1de79df1b1f4bb424fa437c033787c57e640e1c76e3f8f8482604051611ff3929190612d40565b60405180910390a150505050565b61200961214c565b73ffffffffffffffffffffffffffffffffffffffff16612027611661565b73ffffffffffffffffffffffffffffffffffffffff16146120865761204a61214c565b6040517f118cdaa700000000000000000000000000000000000000000000000000000000815260040161207d9190612665565b60405180910390fd5b565b60008060009054906101000a900473ffffffffffffffffffffffffffffffffffffffff169050816000806101000a81548173ffffffffffffffffffffffffffffffffffffffff021916908373ffffffffffffffffffffffffffffffffffffffff1602179055508173ffffffffffffffffffffffffffffffffffffffff168173ffffffffffffffffffffffffffffffffffffffff167f8be0079c531659141344cd1fd0a4f28419497f9722a3daafe3b4186f6b6457e060405160405180910390a35050565b600033905090565b6000604051905090565b600080fd5b600080fd5b600073ffffffffffffffffffffffffffffffffffffffff82169050919050565b600061219382612168565b9050919050565b6121a381612188565b81146121ae57600080fd5b50565b6000813590506121c08161219a565b92915050565b6000602082840312156121dc576121db61215e565b5b60006121ea848285016121b1565b91505092915050565b6000819050919050565b612206816121f3565b82525050565b600060808201905061222160008301876121fd565b61222e60208301866121fd565b61223b60408301856121fd565b61224860608301846121fd565b95945050505050565b61225a816121f3565b811461226557600080fd5b50565b60008135905061227781612251565b92915050565b600080604083850312156122945761229361215e565b5b60006122a2858286016121b1565b92505060206122b385828601612268565b9150509250929050565b6000819050919050565b6122d0816122bd565b81146122db57600080fd5b50565b6000813590506122ed816122c7565b92915050565b6000602082840312156123095761230861215e565b5b6000612317848285016122de565b91505092915050565b6000806000606084860312156123395761233861215e565b5b6000612347868287016121b1565b935050602061235886828701612268565b925050604061236986828701612268565b9150509250925092565b600080fd5b600080fd5b6000601f19601f8301169050919050565b7f4e487b7100000000000000000000000000000000000000000000000000000000600052604160045260246000fd5b6123c68261237d565b810181811067ffffffffffffffff821117156123e5576123e461238e565b5b80604052505050565b60006123f8612154565b905061240482826123bd565b919050565b600067ffffffffffffffff8211156124245761242361238e565b5b61242d8261237d565b9050602081019050919050565b82818337600083830152505050565b600061245c61245784612409565b6123ee565b90508281526020810184848401111561247857612477612378565b5b61248384828561243a565b509392505050565b600082601f8301126124a05761249f612373565b5b81356124b0848260208601612449565b91505092915050565b6000806000606084860312156124d2576124d161215e565b5b60006124e086828701612268565b935050602084013567ffffffffffffffff81111561250157612500612163565b5b61250d8682870161248b565b925050604061251e868287016121b1565b9150509250925092565b60006101008201905061253e600083018b6121fd565b61254b602083018a6121fd565b61255860408301896121fd565b61256560608301886121fd565b61257260808301876121fd565b61257f60a08301866121fd565b61258c60c08301856121fd565b61259960e08301846121fd565b9998505050505050505050565b60008115159050919050565b6125bb816125a6565b82525050565b60006020820190506125d660008301846125b2565b92915050565b6000819050919050565b60006126016125fc6125f784612168565b6125dc565b612168565b9050919050565b6000612613826125e6565b9050919050565b600061262582612608565b9050919050565b6126358161261a565b82525050565b6000602082019050612650600083018461262c565b92915050565b61265f81612188565b82525050565b600060208201905061267a6000830184612656565b92915050565b600060208201905061269560008301846121fd565b92915050565b60006126a682612608565b9050919050565b6126b68161269b565b82525050565b60006020820190506126d160008301846126ad565b92915050565b6000602082840312156126ed576126ec61215e565b5b60006126fb84828501612268565b91505092915050565b600060e082019050612719600083018a6121fd565b61272660208301896121fd565b61273360408301886121fd565b61274060608301876121fd565b61274d60808301866121fd565b61275a60a08301856121fd565b61276760c08301846121fd565b98975050505050505050565b60008060006060848603121561278c5761278b61215e565b5b600061279a868287016121b1565b935050602084013567ffffffffffffffff8111156127bb576127ba612163565b5b6127c78682870161248b565b92505060406127d8868287016121b1565b9150509250925092565b6000602082840312156127f8576127f761215e565b5b600082013567ffffffffffffffff81111561281657612815612163565b5b6128228482850161248b565b91505092915050565b7f4e487b7100000000000000000000000000000000000000000000000000000000600052603260045260246000fd5b60008151905061286981612251565b92915050565b6000602082840312156128855761288461215e565b5b60006128938482850161285a565b91505092915050565b7f4e487b7100000000000000000000000000000000000000000000000000000000600052601160045260246000fd5b60006128d6826121f3565b91506128e1836121f3565b92508282019050808211156128f9576128f861289c565b5b92915050565b600061290a826121f3565b91507fffffffffffffffffffffffffffffffffffffffffffffffffffffffffffffffff820361293c5761293b61289c565b5b600182019050919050565b6000612952826121f3565b915061295d836121f3565b925082820261296b816121f3565b915082820484148315176129825761298161289c565b5b5092915050565b7f4e487b7100000000000000000000000000000000000000000000000000000000600052601260045260246000fd5b60006129c3826121f3565b91506129ce836121f3565b9250826129de576129dd612989565b5b828204905092915050565b600082825260208201905092915050565b7f4e6f7420617574686f72697a6564000000000000000000000000000000000000600082015250565b6000612a30600e836129e9565b9150612a3b826129fa565b602082019050919050565b60006020820190508181036000830152612a5f81612a23565b9050919050565b7f4475706c69636174650000000000000000000000000000000000000000000000600082015250565b6000612a9c6009836129e9565b9150612aa782612a66565b602082019050919050565b60006020820190508181036000830152612acb81612a8f565b9050919050565b600081519050919050565b600081905092915050565b60005b83811015612b06578082015181840152602081019050612aeb565b60008484015250505050565b6000612b1d82612ad2565b612b278185612add565b9350612b37818560208601612ae8565b80840191505092915050565b6000612b4f8284612b12565b915081905092915050565b7f416c726561647920636f756e7465640000000000000000000000000000000000600082015250565b6000612b90600f836129e9565b9150612b9b82612b5a565b602082019050919050565b60006020820190508181036000830152612bbf81612b83565b9050919050565b6000819050919050565b612be1612bdc826121f3565b612bc6565b82525050565b6000612bf38285612bd0565b602082019150612c038284612bd0565b6020820191508190509392505050565b6000612c1e826121f3565b9150612c29836121f3565b925082612c3957612c38612989565b5b828206905092915050565b7f5761697420323468000000000000000000000000000000000000000000000000600082015250565b6000612c7a6008836129e9565b9150612c8582612c44565b602082019050919050565b60006020820190508181036000830152612ca981612c6d565b9050919050565b6000606082019050612cc56000830186612656565b612cd26020830185612656565b612cdf60408301846121fd565b949350505050565b612cf0816125a6565b8114612cfb57600080fd5b50565b600081519050612d0d81612ce7565b92915050565b600060208284031215612d2957612d2861215e565b5b6000612d3784828501612cfe565b91505092915050565b6000604082019050612d556000830185612656565b612d6260208301846121fd565b9392505050565b7f5761697420376400000000000000000000000000000000000000000000000000600082015250565b6000612d9f6007836129e9565b9150612daa82612d69565b602082019050919050565b60006020820190508181036000830152612dce81612d92565b9050919050565b7f416c726561647920616464656400000000000000000000000000000000000000600082015250565b6000612e0b600d836129e9565b9150612e1682612dd5565b602082019050919050565b60006020820190508181036000830152612e3a81612dfe565b9050919050565b7f4d61782075736564000000000000000000000000000000000000000000000000600082015250565b6000612e776008836129e9565b9150612e8282612e41565b602082019050919050565b60006020820190508181036000830152612ea681612e6a565b9050919050565b7f436c61696d656400000000000000000000000000000000000000000000000000600082015250565b6000612ee36007836129e9565b9150612eee82612ead565b602082019050919050565b60006020820190508181036000830152612f1281612ed6565b9050919050565b6000819050919050565b6000612f3e612f39612f3484612f19565b6125dc565b6121f3565b9050919050565b612f4e81612f23565b82525050565b6000604082019050612f696000830185612656565b612f766020830184612f45565b9392505050565b6000612f88826121f3565b9150612f93836121f3565b9250828203905081811115612fab57612faa61289c565b5b9291505056fea26469706673582212201c955719aa5e7b440dcbca3953a1b080fe052e4fde0aa1f880e23df40c0fc32964736f6c63430008140033",
  "linkReferences": {},
  "deployedLinkReferences": {}
}